{
  "contractName": "AES",
  "abi": [
    {
      "inputs": [
        {
          "internalType": "address",
          "name": "sender",
          "type": "address"
        },
        {
          "internalType": "bytes32",
          "name": "messageHash",
          "type": "bytes32"
        }
      ],
      "name": "encrypt",
      "outputs": [],
      "stateMutability": "nonpayable",
      "type": "function"
    },
    {
      "inputs": [
        {
          "internalType": "address",
          "name": "sender",
          "type": "address"
        },
        {
          "internalType": "bytes32",
          "name": "senderTransactionHash",
          "type": "bytes32"
        }
      ],
      "name": "decrypt",
      "outputs": [],
      "stateMutability": "nonpayable",
      "type": "function"
    }
  ],
  "bytecode": "0x608060405234801561001057600080fd5b50610181806100206000396000f3fe608060405234801561001057600080fd5b50600436106100365760003560e01c80639a9ff5301461003b578063d160c06014610057575b600080fd5b610055600480360381019061005091906100a5565b610073565b005b610071600480360381019061006c91906100a5565b610077565b005b5050565b5050565b60008135905061008a8161011d565b92915050565b60008135905061009f81610134565b92915050565b600080604083850312156100b857600080fd5b60006100c68582860161007b565b92505060206100d785828601610090565b9150509250929050565b60006100ec826100fd565b9050919050565b6000819050919050565b600073ffffffffffffffffffffffffffffffffffffffff82169050919050565b610126816100e1565b811461013157600080fd5b50565b61013d816100f3565b811461014857600080fd5b5056fea26469706673582212202cb69b1c605fb5720a04a8e9b16262f89c614c7974b5df6fc3cd5cd09b3ac7ea64736f6c63430007050033",
  "immutableReferences": {},
  "source": "// SPDX-License-Identifier: MIT\npragma solidity >=0.7.0;\npragma experimental ABIEncoderV2;\n\n\ninterface CryptoModule{\n    \n}\n\nabstract contract SymCryptoModule is CryptoModule{\n    function encrypt(address sender,bytes32 messageHash) virtual public;\n    function decrypt(address sender,bytes32 senderTransactionHash) virtual public;\n}\n\ncontract AES is SymCryptoModule{\n\n    function encrypt(address sender,bytes32 messageHash) public override {\n\n    }\n\n    function decrypt(address sender,bytes32 senderTransactionHash) public override{\n        \n    }\n}\n",
  "sourcePath": "/home/ippolit/DApps/CryptoModule/contracts/AES.sol",
  "compiler": {
    "name": "solc",
    "version": "0.7.5+commit.eb77ed08.Emscripten.clang"
  },
  "schemaVersion": "3.3.1",
  "updatedAt": "2020-12-06T18:11:40.231Z",
  "networkType": "ethereum",
  "devdoc": {
    "kind": "dev",
    "methods": {},
    "version": 1
  },
  "userdoc": {
    "kind": "user",
    "methods": {},
    "version": 1
  }
}