{
  "contractName": "RSA",
  "abi": [
    {
      "anonymous": false,
      "inputs": [
        {
          "indexed": false,
          "internalType": "address",
          "name": "receiverAddress",
          "type": "address"
        },
        {
          "indexed": false,
          "internalType": "address",
          "name": "sender",
          "type": "address"
        },
        {
          "indexed": false,
          "internalType": "bytes32",
          "name": "senderTransactionHash",
          "type": "bytes32"
        }
      ],
      "name": "decrypt_oracle",
      "type": "event"
    },
    {
      "anonymous": false,
      "inputs": [
        {
          "indexed": false,
          "internalType": "address",
          "name": "sender",
          "type": "address"
        },
        {
          "indexed": false,
          "internalType": "address",
          "name": "receiverAddress",
          "type": "address"
        },
        {
          "components": [
            {
              "internalType": "string",
              "name": "n",
              "type": "string"
            },
            {
              "internalType": "string",
              "name": "e",
              "type": "string"
            }
          ],
          "indexed": false,
          "internalType": "struct RSA.RSA_PublicKey",
          "name": "publicKey",
          "type": "tuple"
        },
        {
          "indexed": false,
          "internalType": "bytes32",
          "name": "messageHash",
          "type": "bytes32"
        }
      ],
      "name": "encrypt_oracle",
      "type": "event"
    },
    {
      "anonymous": false,
      "inputs": [
        {
          "indexed": false,
          "internalType": "address",
          "name": "sendersAddress",
          "type": "address"
        }
      ],
      "name": "generateKey_oracle",
      "type": "event"
    },
    {
      "anonymous": false,
      "inputs": [
        {
          "indexed": false,
          "internalType": "address",
          "name": "sender",
          "type": "address"
        },
        {
          "indexed": false,
          "internalType": "address",
          "name": "receiverAddress",
          "type": "address"
        },
        {
          "indexed": false,
          "internalType": "string",
          "name": "message",
          "type": "string"
        }
      ],
      "name": "sign_oracle",
      "type": "event"
    },
    {
      "anonymous": false,
      "inputs": [
        {
          "indexed": false,
          "internalType": "address",
          "name": "sender",
          "type": "address"
        },
        {
          "indexed": false,
          "internalType": "address",
          "name": "receiverAddress",
          "type": "address"
        },
        {
          "indexed": false,
          "internalType": "bytes32",
          "name": "senderTransactionHash",
          "type": "bytes32"
        }
      ],
      "name": "verify_oracle",
      "type": "event"
    },
    {
      "inputs": [],
      "name": "ALGORITHM_NAME",
      "outputs": [
        {
          "internalType": "string",
          "name": "",
          "type": "string"
        }
      ],
      "stateMutability": "view",
      "type": "function"
    },
    {
      "inputs": [],
      "name": "HASH_FUNCTION",
      "outputs": [
        {
          "internalType": "string",
          "name": "",
          "type": "string"
        }
      ],
      "stateMutability": "view",
      "type": "function"
    },
    {
      "inputs": [],
      "name": "generateKey",
      "outputs": [],
      "stateMutability": "nonpayable",
      "type": "function"
    },
    {
      "inputs": [
        {
          "internalType": "string",
          "name": "_n",
          "type": "string"
        },
        {
          "internalType": "string",
          "name": "_e",
          "type": "string"
        }
      ],
      "name": "setPublicKey",
      "outputs": [],
      "stateMutability": "nonpayable",
      "type": "function"
    },
    {
      "inputs": [
        {
          "internalType": "address",
          "name": "_address",
          "type": "address"
        }
      ],
      "name": "getPublicKey",
      "outputs": [
        {
          "internalType": "string",
          "name": "",
          "type": "string"
        },
        {
          "internalType": "string",
          "name": "",
          "type": "string"
        }
      ],
      "stateMutability": "view",
      "type": "function"
    },
    {
      "inputs": [
        {
          "internalType": "address",
          "name": "receiverAddress",
          "type": "address"
        },
        {
          "internalType": "bytes32",
          "name": "messageHash",
          "type": "bytes32"
        }
      ],
      "name": "encrypt",
      "outputs": [],
      "stateMutability": "nonpayable",
      "type": "function"
    },
    {
      "inputs": [
        {
          "internalType": "address",
          "name": "senderAddress",
          "type": "address"
        },
        {
          "internalType": "bytes32",
          "name": "senderTransactionHash",
          "type": "bytes32"
        }
      ],
      "name": "decrypt",
      "outputs": [],
      "stateMutability": "nonpayable",
      "type": "function"
    },
    {
      "inputs": [
        {
          "internalType": "address",
          "name": "receiverAddress",
          "type": "address"
        },
        {
          "internalType": "string",
          "name": "message",
          "type": "string"
        }
      ],
      "name": "sign",
      "outputs": [],
      "stateMutability": "nonpayable",
      "type": "function"
    },
    {
      "inputs": [
        {
          "internalType": "address",
          "name": "signerAddress",
          "type": "address"
        },
        {
          "internalType": "bytes32",
          "name": "signTransactionHash",
          "type": "bytes32"
        }
      ],
      "name": "verify",
      "outputs": [],
      "stateMutability": "nonpayable",
      "type": "function"
    }
  ],
  "bytecode": "0x608060405234801561001057600080fd5b50610cfe806100206000396000f3fe608060405234801561001057600080fd5b50600436106100935760003560e01c8063922dd7d911610066578063922dd7d91461011f5780639a9ff53014610129578063ad2a9fcf14610145578063d160c06014610161578063f4ec190c1461017d57610093565b80630dd5ee1b1461009857806327af5a46146100b457806342ac87cf146100d2578063857cdbb8146100ee575b600080fd5b6100b260048036038101906100ad91906107c6565b61019b565b005b6100bc6101da565b6040516100c99190610ad7565b60405180910390f35b6100ec60048036038101906100e79190610856565b610213565b005b6101086004803603810190610103919061079d565b6102de565b604051610116929190610af9565b60405180910390f35b610127610506565b005b610143600480360381019061013e91906107c6565b61053f565b005b61015f600480360381019061015a9190610802565b61057e565b005b61017b600480360381019061017691906107c6565b6105bd565b005b61018561063b565b6040516101929190610ad7565b60405180910390f35b7f0eafba0ea5800190bd17f61cfe72676fa7cc1b437b65f6f2be1bd701959b69403383836040516101ce93929190610a16565b60405180910390a15050565b6040518060400160405280600381526020017f525341000000000000000000000000000000000000000000000000000000000081525081565b60008251118015610225575060008151115b61022e57600080fd5b816000803373ffffffffffffffffffffffffffffffffffffffff1673ffffffffffffffffffffffffffffffffffffffff1681526020019081526020016000206000019080519060200190610283929190610674565b50806000803373ffffffffffffffffffffffffffffffffffffffff1673ffffffffffffffffffffffffffffffffffffffff16815260200190815260200160002060010190805190602001906102d9929190610674565b505050565b60608060008060008573ffffffffffffffffffffffffffffffffffffffff1673ffffffffffffffffffffffffffffffffffffffff1681526020019081526020016000206000018054600181600116156101000203166002900490501161034357600080fd5b6000808473ffffffffffffffffffffffffffffffffffffffff1673ffffffffffffffffffffffffffffffffffffffff1681526020019081526020016000206000016000808573ffffffffffffffffffffffffffffffffffffffff1673ffffffffffffffffffffffffffffffffffffffff168152602001908152602001600020600101818054600181600116156101000203166002900480601f01602080910402602001604051908101604052809291908181526020018280546001816001161561010002031660029004801561045a5780601f1061042f5761010080835404028352916020019161045a565b820191906000526020600020905b81548152906001019060200180831161043d57829003601f168201915b50505050509150808054600181600116156101000203166002900480601f0160208091040260200160405190810160405280929190818152602001828054600181600116156101000203166002900480156104f65780601f106104cb576101008083540402835291602001916104f6565b820191906000526020600020905b8154815290600101906020018083116104d957829003601f168201915b5050505050905091509150915091565b7f963f88cd0536873abe322cf9d2507b2c50a83a32649a604c119cf6f69c67ebfa3360405161053591906109fb565b60405180910390a1565b7f3a46ee0a92a41996340f04e53343db9ea937f9c3efb0d7d5d2a708817dd9862b33838360405161057293929190610a16565b60405180910390a15050565b7f69434f92a6e6fc3c4e9c1d99bc88bb2b7f448866218d2e59a11bbd1c6f81aca43383836040516105b193929190610a4d565b60405180910390a15050565b7f544bf3657b7d0da642a71b00e7dd2f5e619bd808b81203aa35f98fb9e982f5ca33836000808673ffffffffffffffffffffffffffffffffffffffff1673ffffffffffffffffffffffffffffffffffffffff1681526020019081526020016000208460405161062f9493929190610a8b565b60405180910390a15050565b6040518060400160405280600981526020017f6b656363616b323536000000000000000000000000000000000000000000000081525081565b828054600181600116156101000203166002900490600052602060002090601f0160209004810192826106aa57600085556106f1565b82601f106106c357805160ff19168380011785556106f1565b828001600101855582156106f1579182015b828111156106f05782518255916020019190600101906106d5565b5b5090506106fe9190610702565b5090565b5b8082111561071b576000816000905550600101610703565b5090565b60008135905061072e81610c9a565b92915050565b60008135905061074381610cb1565b92915050565b600082601f83011261075a57600080fd5b813561076d61076882610b61565b610b30565b9150808252602083016020830185838301111561078957600080fd5b610794838284610c45565b50505092915050565b6000602082840312156107af57600080fd5b60006107bd8482850161071f565b91505092915050565b600080604083850312156107d957600080fd5b60006107e78582860161071f565b92505060206107f885828601610734565b9150509250929050565b6000806040838503121561081557600080fd5b60006108238582860161071f565b925050602083013567ffffffffffffffff81111561084057600080fd5b61084c85828601610749565b9150509250929050565b6000806040838503121561086957600080fd5b600083013567ffffffffffffffff81111561088357600080fd5b61088f85828601610749565b925050602083013567ffffffffffffffff8111156108ac57600080fd5b6108b885828601610749565b9150509250929050565b6108cb81610c0f565b82525050565b6108da81610bd3565b82525050565b6108e981610be5565b82525050565b60006108fa82610ba6565b6109048185610bc2565b9350610914818560208601610c54565b61091d81610c89565b840191505092915050565b600081546001811660008114610945576001811461096b576109af565b607f60028304166109568187610bb1565b955060ff1983168652602086019350506109af565b600282046109798187610bb1565b955061098485610b91565b60005b828110156109a657815481890152600182019150602081019050610987565b80880195505050505b505092915050565b600060408301600080840185830360008701526109d48382610928565b9250506001840185830360208701526109ed8382610928565b925050819250505092915050565b6000602082019050610a1060008301846108c2565b92915050565b6000606082019050610a2b60008301866108c2565b610a3860208301856108d1565b610a4560408301846108e0565b949350505050565b6000606082019050610a6260008301866108c2565b610a6f60208301856108d1565b8181036040830152610a8181846108ef565b9050949350505050565b6000608082019050610aa060008301876108c2565b610aad60208301866108d1565b8181036040830152610abf81856109b7565b9050610ace60608301846108e0565b95945050505050565b60006020820190508181036000830152610af181846108ef565b905092915050565b60006040820190508181036000830152610b1381856108ef565b90508181036020830152610b2781846108ef565b90509392505050565b6000604051905081810181811067ffffffffffffffff82111715610b5757610b56610c87565b5b8060405250919050565b600067ffffffffffffffff821115610b7c57610b7b610c87565b5b601f19601f8301169050602081019050919050565b60008190508160005260206000209050919050565b600081519050919050565b600082825260208201905092915050565b600082825260208201905092915050565b6000610bde82610bef565b9050919050565b6000819050919050565b600073ffffffffffffffffffffffffffffffffffffffff82169050919050565b6000610c1a82610c21565b9050919050565b6000610c2c82610c33565b9050919050565b6000610c3e82610bef565b9050919050565b82818337600083830152505050565b60005b83811015610c72578082015181840152602081019050610c57565b83811115610c81576000848401525b50505050565bfe5b6000601f19601f8301169050919050565b610ca381610bd3565b8114610cae57600080fd5b50565b610cba81610be5565b8114610cc557600080fd5b5056fea2646970667358221220f444ffb2d19b89283317ae13eaa6fd2e8165463124daf1734274acc13b82660964736f6c63430007050033",
  "immutableReferences": {},
  "source": "// SPDX-License-Identifier: MIT\npragma solidity >=0.7.0;\npragma experimental ABIEncoderV2;\n\ninterface CryptoModule{\n    \n}\n\nabstract contract AsymCryptoModule{\n    function generateKey() virtual public;\n    function encrypt(address sender,bytes32 messageHash) virtual public;\n    function decrypt(address sender,bytes32 senderTransactionHash) virtual public;\n    function sign(address receiverAddress,string memory message) virtual public;\n    function verify(address signerAddress,bytes32 signTransactionHash) virtual public;\n}\n\ncontract RSA is AsymCryptoModule{\n    string public constant ALGORITHM_NAME=\"RSA\";\n    string public constant HASH_FUNCTION=\"keccak256\";\n    struct RSA_PublicKey{\n        string n;\n        string e;\n    }\n    mapping(address => RSA_PublicKey) publicKeys;// store public keys\n   \n    event generateKey_oracle(address sendersAddress);\n    event encrypt_oracle(address sender,address receiverAddress,RSA_PublicKey publicKey,bytes32 messageHash);\n    event decrypt_oracle(address receiverAddress,address sender,bytes32 senderTransactionHash);\n    event sign_oracle(address sender,address receiverAddress,string message);\n    event verify_oracle(address sender,address receiverAddress,bytes32 senderTransactionHash);\n\n    function generateKey() public override{\n        emit generateKey_oracle(msg.sender);\n    }\n\n    function setPublicKey(string memory _n,string memory _e) public {\n        require(bytes(_n).length>0 && bytes(_e).length>0);\n        publicKeys[msg.sender].n=_n;\n        publicKeys[msg.sender].e=_e;\n    }\n\n    function getPublicKey(address _address) public view returns(string memory,string memory){\n        require(bytes(publicKeys[_address].n).length>0);//TODO think about checking\n        return (publicKeys[_address].n,publicKeys[_address].e);\n    }\n\n    function encrypt(address receiverAddress,bytes32 messageHash) public override {\n        emit encrypt_oracle(msg.sender,receiverAddress,publicKeys[receiverAddress],messageHash);\n    }\n\n    function decrypt(address senderAddress,bytes32 senderTransactionHash) public override {\n        emit decrypt_oracle(msg.sender,senderAddress,senderTransactionHash);\n    }\n\n    function sign(address receiverAddress,string memory message) public override{\n        emit sign_oracle(msg.sender,receiverAddress,message);\n    }\n    \n    function verify(address signerAddress,bytes32 signTransactionHash) public override{\n        emit verify_oracle(msg.sender,signerAddress,signTransactionHash);\n    }\n \n}\n",
  "sourcePath": "/home/ippolit/DApps/CryptoModule/contracts/RSA.sol",
  "compiler": {
    "name": "solc",
    "version": "0.7.5+commit.eb77ed08.Emscripten.clang"
  },
  "schemaVersion": "3.3.1",
  "updatedAt": "2020-12-06T18:29:15.726Z",
  "devdoc": {
    "kind": "dev",
    "methods": {},
    "version": 1
  },
  "userdoc": {
    "kind": "user",
    "methods": {},
    "version": 1
  }
}