{
  "contractName": "RSA",
  "abi": [
    {
      "anonymous": false,
      "inputs": [
        {
          "indexed": false,
          "internalType": "address",
          "name": "receiver",
          "type": "address"
        },
        {
          "indexed": false,
          "internalType": "address",
          "name": "sender",
          "type": "address"
        },
        {
          "indexed": false,
          "internalType": "bytes32",
          "name": "transactionHash",
          "type": "bytes32"
        }
      ],
      "name": "decrypt_oracle",
      "type": "event"
    },
    {
      "anonymous": false,
      "inputs": [
        {
          "indexed": false,
          "internalType": "address",
          "name": "sender",
          "type": "address"
        },
        {
          "indexed": false,
          "internalType": "address",
          "name": "receiver",
          "type": "address"
        },
        {
          "components": [
            {
              "internalType": "string",
              "name": "n",
              "type": "string"
            },
            {
              "internalType": "string",
              "name": "e",
              "type": "string"
            }
          ],
          "indexed": false,
          "internalType": "struct RSA.RSA_PublicKey",
          "name": "publicKey",
          "type": "tuple"
        },
        {
          "indexed": false,
          "internalType": "bytes32",
          "name": "messageHash",
          "type": "bytes32"
        }
      ],
      "name": "encrypt_oracle",
      "type": "event"
    },
    {
      "anonymous": false,
      "inputs": [
        {
          "indexed": false,
          "internalType": "address",
          "name": "",
          "type": "address"
        }
      ],
      "name": "generateKey_oracle",
      "type": "event"
    },
    {
      "anonymous": false,
      "inputs": [],
      "name": "sign_oracle",
      "type": "event"
    },
    {
      "anonymous": false,
      "inputs": [],
      "name": "verify_oracle",
      "type": "event"
    },
    {
      "inputs": [],
      "name": "ALGORITHM_NAME",
      "outputs": [
        {
          "internalType": "string",
          "name": "",
          "type": "string"
        }
      ],
      "stateMutability": "view",
      "type": "function"
    },
    {
      "inputs": [],
      "name": "generateKey",
      "outputs": [],
      "stateMutability": "nonpayable",
      "type": "function"
    },
    {
      "inputs": [
        {
          "internalType": "string",
          "name": "_n",
          "type": "string"
        },
        {
          "internalType": "string",
          "name": "_e",
          "type": "string"
        }
      ],
      "name": "setPublicKey",
      "outputs": [],
      "stateMutability": "nonpayable",
      "type": "function"
    },
    {
      "inputs": [
        {
          "internalType": "address",
          "name": "_address",
          "type": "address"
        }
      ],
      "name": "getPublicKey",
      "outputs": [
        {
          "internalType": "string",
          "name": "",
          "type": "string"
        },
        {
          "internalType": "string",
          "name": "",
          "type": "string"
        }
      ],
      "stateMutability": "view",
      "type": "function"
    },
    {
      "inputs": [
        {
          "internalType": "address",
          "name": "_to",
          "type": "address"
        },
        {
          "internalType": "bytes32",
          "name": "messageHash",
          "type": "bytes32"
        }
      ],
      "name": "encrypt",
      "outputs": [],
      "stateMutability": "nonpayable",
      "type": "function"
    },
    {
      "inputs": [
        {
          "internalType": "address",
          "name": "sender",
          "type": "address"
        },
        {
          "internalType": "bytes32",
          "name": "transactionHash",
          "type": "bytes32"
        }
      ],
      "name": "decrypt",
      "outputs": [],
      "stateMutability": "nonpayable",
      "type": "function"
    },
    {
      "inputs": [],
      "name": "sign",
      "outputs": [],
      "stateMutability": "nonpayable",
      "type": "function"
    },
    {
      "inputs": [],
      "name": "verify",
      "outputs": [],
      "stateMutability": "nonpayable",
      "type": "function"
    }
  ],
  "bytecode": "0x608060405234801561001057600080fd5b50610ba9806100206000396000f3fe608060405234801561001057600080fd5b50600436106100885760003560e01c8063922dd7d91161005b578063922dd7d9146101025780639a9ff5301461010c578063d160c06014610128578063fc735e991461014457610088565b806327af5a461461008d5780632ca15122146100ab57806342ac87cf146100b5578063857cdbb8146100d1575b600080fd5b61009561014e565b6040516100a29190610982565b60405180910390f35b6100b3610187565b005b6100cf60048036038101906100ca919061073f565b6101b5565b005b6100eb60048036038101906100e691906106da565b610265565b6040516100f99291906109a4565b60405180910390f35b61010a61048d565b005b61012660048036038101906101219190610703565b6104c6565b005b610142600480360381019061013d9190610703565b610505565b005b61014c610583565b005b6040518060400160405280600381526020017f525341000000000000000000000000000000000000000000000000000000000081525081565b7f2c2337b7388438fc9efca09d930e5d8f396c576b17237cb0fdf94cb8eacf8f8460405160405180910390a1565b816000803373ffffffffffffffffffffffffffffffffffffffff1673ffffffffffffffffffffffffffffffffffffffff168152602001908152602001600020600001908051906020019061020a9291906105b1565b50806000803373ffffffffffffffffffffffffffffffffffffffff1673ffffffffffffffffffffffffffffffffffffffff16815260200190815260200160002060010190805190602001906102609291906105b1565b505050565b60608060008060008573ffffffffffffffffffffffffffffffffffffffff1673ffffffffffffffffffffffffffffffffffffffff168152602001908152602001600020600001805460018160011615610100020316600290049050116102ca57600080fd5b6000808473ffffffffffffffffffffffffffffffffffffffff1673ffffffffffffffffffffffffffffffffffffffff1681526020019081526020016000206000016000808573ffffffffffffffffffffffffffffffffffffffff1673ffffffffffffffffffffffffffffffffffffffff168152602001908152602001600020600101818054600181600116156101000203166002900480601f0160208091040260200160405190810160405280929190818152602001828054600181600116156101000203166002900480156103e15780601f106103b6576101008083540402835291602001916103e1565b820191906000526020600020905b8154815290600101906020018083116103c457829003601f168201915b50505050509150808054600181600116156101000203166002900480601f01602080910402602001604051908101604052809291908181526020018280546001816001161561010002031660029004801561047d5780601f106104525761010080835404028352916020019161047d565b820191906000526020600020905b81548152906001019060200180831161046057829003601f168201915b5050505050905091509150915091565b7f963f88cd0536873abe322cf9d2507b2c50a83a32649a604c119cf6f69c67ebfa336040516104bc91906108e4565b60405180910390a1565b7f3a46ee0a92a41996340f04e53343db9ea937f9c3efb0d7d5d2a708817dd9862b3383836040516104f9939291906108ff565b60405180910390a15050565b7f544bf3657b7d0da642a71b00e7dd2f5e619bd808b81203aa35f98fb9e982f5ca33836000808673ffffffffffffffffffffffffffffffffffffffff1673ffffffffffffffffffffffffffffffffffffffff168152602001908152602001600020846040516105779493929190610936565b60405180910390a15050565b7f1e25bc683dfb1c8562af504d4cc529c42c34a8b114a4c020fac8135e0528b2ca60405160405180910390a1565b828054600181600116156101000203166002900490600052602060002090601f0160209004810192826105e7576000855561062e565b82601f1061060057805160ff191683800117855561062e565b8280016001018555821561062e579182015b8281111561062d578251825591602001919060010190610612565b5b50905061063b919061063f565b5090565b5b80821115610658576000816000905550600101610640565b5090565b60008135905061066b81610b45565b92915050565b60008135905061068081610b5c565b92915050565b600082601f83011261069757600080fd5b81356106aa6106a582610a0c565b6109db565b915080825260208301602083018583830111156106c657600080fd5b6106d1838284610af0565b50505092915050565b6000602082840312156106ec57600080fd5b60006106fa8482850161065c565b91505092915050565b6000806040838503121561071657600080fd5b60006107248582860161065c565b925050602061073585828601610671565b9150509250929050565b6000806040838503121561075257600080fd5b600083013567ffffffffffffffff81111561076c57600080fd5b61077885828601610686565b925050602083013567ffffffffffffffff81111561079557600080fd5b6107a185828601610686565b9150509250929050565b6107b481610aba565b82525050565b6107c381610a7e565b82525050565b6107d281610a90565b82525050565b60006107e382610a51565b6107ed8185610a6d565b93506107fd818560208601610aff565b61080681610b34565b840191505092915050565b60008154600181166000811461082e576001811461085457610898565b607f600283041661083f8187610a5c565b955060ff198316865260208601935050610898565b600282046108628187610a5c565b955061086d85610a3c565b60005b8281101561088f57815481890152600182019150602081019050610870565b80880195505050505b505092915050565b600060408301600080840185830360008701526108bd8382610811565b9250506001840185830360208701526108d68382610811565b925050819250505092915050565b60006020820190506108f960008301846107ab565b92915050565b600060608201905061091460008301866107ab565b61092160208301856107ba565b61092e60408301846107c9565b949350505050565b600060808201905061094b60008301876107ab565b61095860208301866107ba565b818103604083015261096a81856108a0565b905061097960608301846107c9565b95945050505050565b6000602082019050818103600083015261099c81846107d8565b905092915050565b600060408201905081810360008301526109be81856107d8565b905081810360208301526109d281846107d8565b90509392505050565b6000604051905081810181811067ffffffffffffffff82111715610a0257610a01610b32565b5b8060405250919050565b600067ffffffffffffffff821115610a2757610a26610b32565b5b601f19601f8301169050602081019050919050565b60008190508160005260206000209050919050565b600081519050919050565b600082825260208201905092915050565b600082825260208201905092915050565b6000610a8982610a9a565b9050919050565b6000819050919050565b600073ffffffffffffffffffffffffffffffffffffffff82169050919050565b6000610ac582610acc565b9050919050565b6000610ad782610ade565b9050919050565b6000610ae982610a9a565b9050919050565b82818337600083830152505050565b60005b83811015610b1d578082015181840152602081019050610b02565b83811115610b2c576000848401525b50505050565bfe5b6000601f19601f8301169050919050565b610b4e81610a7e565b8114610b5957600080fd5b50565b610b6581610a90565b8114610b7057600080fd5b5056fea2646970667358221220cc157ecf1a9097a91166ce80198e83b1fb3890a22b2c6aa53e4d2dfbd10253a764736f6c63430007050033",
  "immutableReferences": {},
  "source": "// SPDX-License-Identifier: MIT\npragma solidity >=0.7.0;\npragma experimental ABIEncoderV2;\n\n//import \"./CryptoModule.sol\";\n\nabstract contract AsymCryptoModule{\n    function generateKey() virtual public;\n    function encrypt(address sender,bytes32 messageHash) virtual public;\n    function decrypt(address sender,bytes32 transactionHash) virtual public;\n    function sign() virtual public;\n    function verify() virtual public;\n    \n}\n\ncontract RSA is AsymCryptoModule{\n\n    string public constant ALGORITHM_NAME=\"RSA\";\n    struct RSA_PublicKey{\n        string n;\n        string e;\n    }\n    mapping(address => RSA_PublicKey) publicKeys;// store public keys\n   \n    event generateKey_oracle(address);\n    event encrypt_oracle(address sender,address receiver,RSA_PublicKey publicKey,bytes32 messageHash);\n    event decrypt_oracle(address receiver,address sender,bytes32 transactionHash);\n    event sign_oracle();\n    event verify_oracle();\n\n    function generateKey() public override{\n        emit generateKey_oracle(msg.sender);\n    }\n\n    function setPublicKey(string memory _n,string memory _e) public {\n        publicKeys[msg.sender].n=_n;\n        publicKeys[msg.sender].e=_e;\n    }\n\n    function getPublicKey(address _address) public view returns(string memory,string memory){\n        require(bytes(publicKeys[_address].n).length>0);//TODO think about checking\n        return (publicKeys[_address].n,publicKeys[_address].e);\n    }\n\n    function encrypt(address _to,bytes32 messageHash) public override {\n        emit encrypt_oracle(msg.sender,_to,publicKeys[_to],messageHash);\n    }\n\n    function decrypt(address sender,bytes32 transactionHash) public override {\n        emit decrypt_oracle(msg.sender,sender,transactionHash);\n    }\n\n    function sign()  public override{\n        emit sign_oracle();\n    }\n    \n    function verify() public override{\n        emit verify_oracle();\n    }\n \n}\n",
  "sourcePath": "/home/ippolit/DApps/CryptoModule/contracts/RSA.sol",
  "compiler": {
    "name": "solc",
    "version": "0.7.5+commit.eb77ed08.Emscripten.clang"
  },
  "schemaVersion": "3.3.1",
  "updatedAt": "2020-12-06T02:35:16.009Z",
  "devdoc": {
    "kind": "dev",
    "methods": {},
    "version": 1
  },
  "userdoc": {
    "kind": "user",
    "methods": {},
    "version": 1
  }
}